:1000000072C000009EC000009CC000009AC00000AA
:1000100098C0000096C0000094C0000092C000008C
:1000200090C000008EC000008CC000008AC000009C
:1000300088C0000086C0000084C0000082C00000AC
:1000400080C000007EC000007CC000007AC00000BC
:1000500078C0000076C0000074C0000072C00000CC
:1000600070C000008DC1000062C100006AC00000C5
:1000700068C0000066C0000064C0000062C00000EC
:1000800060C000005EC000005CC000005AC00000FC
:1000900058C0000056C0000054C0000052C000000C
:1000A00050C000004EC000004CC000004AC000001C
:1000B00048C0000046C0000044C0000042C000002C
:1000C00040C000003EC000003CC000003AC000003C
:1000D00038C0000036C0000034C0000032C000004C
:1000E00030C00000F60111241FBECFEFD1E2DEBF09
:1000F000CDBF00E00CBF12E0A0E0B2E0ECE5F7E01D
:1001000000E00BBF02C007900D92A431B107D9F7F0
:1001100022E0A4E1B2E001C01D92A63BB207E1F7E4
:1001200010E0C3E7D0E000E005C021970109802F6F
:10013000FE0106D3C237D10780E00807B1F783D1AB
:100140000BC35ECFFC01538D448D252F30E0842FEF
:1001500090E0821B930B541710F0CF9608950197EF
:100160000895FC01918D828D981761F0828DDF01D9
:10017000A80FB11D5D968C91928D9F5F9F73928F9A
:1001800090E008958FEF9FEF0895FC01918D828D8F
:10019000981731F0828DE80FF11D858D90E008955C
:1001A0008FEF9FEF0895FC01918D228D892F90E0B4
:1001B000805C9F4F821B91098F7399270895FC01E2
:1001C000848DDF01A80FB11DA35ABF4F2C91848DE0
:1001D00090E001968F739927848FA689B7892C9315
:1001E000A089B1898C9180648C93938D848D9813B0
:1001F00006C00288F389E02D80818F7D8083089579
:10020000EF92FF920F931F93CF93DF93EC0181E066
:10021000888F9B8D8C8D981305C0E889F989808122
:1002200085FD23C0F62E0B8D10E00F5F1F4F0F735F
:100230001127E02E8C8DE8120BC00FB607FCFACF09
:10024000E889F989808185FFF5CFCE01B8DFF2CF4B
:100250008B8DFE01E80FF11DE35AFF4FF0820B8FEB
:10026000EA89FB898081806207C0EE89FF8960830B
:10027000E889F98980818064808381E090E0DF9162
:10028000CF911F910F91FF90EF900895CF93DF933F
:10029000EC01888D8823C1F0EA89FB89808185FD86
:1002A00005C0A889B9898C9186FD0EC00FB607FCE0
:1002B000F5CF808185FFF2CFA889B9898C9185FF20
:1002C000EDCFCE017CDFE8CFDF91CF910895CF92C3
:1002D000DF92EF92FF920F931F93CF93DF936C0106
:1002E0007A018B01C0E0D0E0CE15DF0589F0D8019E
:1002F0006D918D01D601ED91FC910190F081E02D81
:10030000C6011995892B11F47E0102C02196ECCF0C
:10031000C701DF91CF911F910F91FF90EF90DF9078
:10032000CF900895089580E090E0089511D21F9233
:100330000F920FB60F9211240BB60F922F933F938B
:100340004F935F936F937F938F939F93AF93BF93DD
:10035000EF93FF9389E192E032DFFF91EF91BF913C
:10036000AF919F918F917F916F915F914F913F914D
:100370002F910F900BBE0F900FBE0F901F901895EE
:100380001F920F920FB60F9211240BB60F922F935C
:100390008F939F93EF93FF93E0912902F0912A02AC
:1003A0008081E0912F02F091300282FD12C0908195
:1003B000809132028F5F8F7320913302821751F048
:1003C000E0913202F0E0E75EFD4F958F80933202BC
:1003D00001C08081FF91EF919F918F912F910F909C
:1003E0000BBE0F900FBE0F901F901895E9E1F2E041
:1003F0001382128288EE93E0A0E0B0E084839583BC
:10040000A683B78386E092E09183808385EC90E0B9
:100410009587848784EC90E09787868780EC90E0CE
:10042000918B808B81EC90E0938B828B82EC90E0BF
:10043000958B848B86EC90E0978B868B118E128E39
:10044000138E148E0895F8941092C1008FE5809356
:10045000C4001092C50086E08093C20088E18093BA
:10046000C100259A2D9A269A2E9A909107019F6095
:100470009093070190910801907F909308018DB9A6
:100480008EB9109281008CEF8093850021E020933B
:10049000840093E0909389008FEF8093880090937D
:1004A0008B0080938A0090938700809386009BEA5C
:1004B000909380009CE09093810010929100809333
:1004C00095002093940010928900809388001092E8
:1004D0008B0080938A00109297008093960089EA9F
:1004E000809390008DE08093910078941092890021
:1004F00083E5809388002FEF3FEF9CE2215030404E
:100500009040E1F700C0000010928B0080938A00B9
:100510002FEF3FEF8CE2215030408040E1F700C0E8
:100520000000109299001092980010929B00109277
:100530009A0080910801807F8A6080930801D0E052
:10054000C0E0EE24E394F12C0FEF1FEF93E5D92EDA
:1005500025E3C22E38E3B32E8091C00087FFFCCF85
:100560008091C600853761F410928900B0928800AE
:100570009FEF2FEF3CE2915020403040E1F70DC05B
:10058000843671F410928900D09288008FEF9FEF2B
:100590002CE2815090402040E1F700C00000B9C03B
:1005A000873661F410928B00C0928A003FEF8FEF84
:1005B0009CE2315080409040E1F7EFCF8C3661F4FF
:1005C00010928B00D0928A002FEF3FEF8CE22150E7
:1005D00030408040E1F7E1CF90ED980F9A3068F419
:1005E000E0911702F0911802EC5EFD4F80812AE045
:1005F000829F900D112490838CC08C32A1F4809145
:10060000170290911802FC01EC5EFD4F20813091A1
:100610000002239F202D112420830196909318021D
:100620008093170272C08D3229F410930102009357
:1006300000026FC0E0911702F0911802EC5EFD4FCE
:10064000808190910002899F802D112480832091C8
:100650001402022E000C330B80911502082E000CA0
:10066000990BE90137FF04C0CC27DD27C21BD30B50
:100670006C2FAC0197FF04C044275527481B590B2A
:10068000D42F109299006093980010929B00409391
:100690009A0037FD0FC040910801407F4A604093A7
:1006A0000801232B81F097FF17C080910801807FFC
:1006B000866010C01816190634F420910801207FB6
:1006C0002960209308011816190634F0809108015A
:1006D000807F8560809308018091170290911802B5
:1006E0008330910514F4019602C083E090E0E4E1C8
:1006F000F2E09F01245132402817390714F4119277
:10070000F8CF1092180210921702F0920102E092B4
:100710000002E0911902F0911A020190F081E02D9F
:100720006C2F89E192E01995E0911902F0911A027B
:100730000190F081E02D6D2F89E192E019950CCFA9
:10074000EE0FFF1F881F8BBF0790F691E02D1994C5
:0C07500081E090E0F89400C0F894FFCF26
:10075C0001000000000000016701A2004601D30067
:04076C00B100C50013
:00000001FF
